:020000001928BD
:100008007E1480310B1F09280A2817282100111C8B
:100018000E280F2817282000111C13281428172829
:100028008231F72280317E1009001A282000AC01A5
:10003800AD01AE01AF01B001B101B2017E102000E7
:10004800252882312322803120001C158B170B179D
:1000580030080739A90006302902031C342835283E
:100068008329F830B00503100C1C03140030093D37
:10007800A900300CAA00AA0C2A0C1F390907290468
:10008800AB00AB0DAB0DAB0D30082B0607392B06BB
:10009800B00083290330B200AC30A0000D30A100BD
:1000A800AC30A2000D30A300AC30A4000D30A50088
:1000B800A6018131A32180312000AE01AF012C2897
:1000C800300CA900A90C290C1F391F3A031D6D28F3
:1000D8006E282C280230B2006028300CA900A90C28
:1000E800290C1F39003A031D7A287B282C284E2812
:1000F800EA302F02603003192E02031C8428852859
:1001080097280030A000A1000030A200A300003012
:10011800A400A500A6018131A32180312000B201ED
:10012800B20AAE01AF01300CA900A90C290C1F3985
:100138001F3A031DA028A1282C28AC012D101F3020
:10014800AD053108A9000530A936890BA82829086A
:100158000339013EAA00AA0DAA0D2D082A06E33983
:100168002A06AD003108A9000430A936890BB92840
:1001780029080139AA00AA0D2D082A06FD392A06E0
:10018800AD000430B200602800302F021930031986
:100198002E02031CD028D12808292D18D428D528A8
:1001A800E1280530A9002908AC078C302C02031C73
:1001B800DE28DF28F7282D14F7280530AC02103088
:1001C8002C020318E828E928F7282D102D0EA9007D
:1001D800290C0739A900A90AA90EA90D2D08290675
:1001E8001F392906AD00AE01AF01FF30A000FF3076
:1001F800A1000030A200A3000030A400A5002C0834
:10020800A6008131A321803120002D0C890C0739EB
:10021800A9002D0E890C07392906031D1429152953
:100228002C28AD1C182919292029AC012D101F30A4
:10023800AD050530B20060280030A000A1000030F4
:10024800A200A3000030A400A500A6018131A321CB
:10025800803106302000B200602800302F021430B0
:1002680003192E02031C39293A2968292D183D291A
:100278003E295D291E30A9002908AC07AE01AF014F
:10028800DC302C02031C49294A294B292D14FF3044
:10029800A000FF30A100FF30A200FF30A300FF3014
:1002A800A400FF30A5002C08A6008131A3218031CD
:1002B800682965302C02031C6229632968290F30DC
:1002C800AC02AE01AF014B29883020002E06133056
:1002D80003192F06031D712972292C280230B20038
:1002E8005028DC302E06053003192F06031D7D2902
:1002F8007E292C287229B201AE01AF012C283208C0
:10030800A900AA012A08003A03198B297F2929087C
:10031800003A03194E28013A03196428033A0319CD
:100328007128013A03197C28073A0319C828013AA9
:1003380003193129033A031975297F29192820003F
:1003480026080319A829A929032A2108A800200892
:10035800A7002808A700A8012708A0002808A100CE
:100368002608A700A8012708F2002808F30021089A
:10037800F5002008F40082315522813173082000ED
:10038800A1007208A0002308A8002208A7002808D6
:10039800A700A8012708A2002808A3002608A7008C
:1003A800A8012708F2002808F3002308F50022080E
:1003B800F40082315522813173082000A3007208AD
:1003C800A2002508A8002408A7002808A700A8015B
:1003D8002708A4002808A5002608A700A8012708C0
:1003E800F2002808F3002508F5002408F4008231FB
:1003F8005522813173082000A5007208A4003B0033
:100408009B13200021083B009400200020083B009B
:1004180093009B17AB13200023083B00A400200087
:1004280022083B00A300AB17BB13200025083B00A4
:10043800B400200024083B00B300BB1708000130BB
:1004480022008C000B3021008C00063023008C0029
:1004580024008C010C142100951325008C013730E1
:1004680026008C003F3027008C00033022009D00BE
:100478007830210099009801220096011630210059
:1004880097008231742282318231BC2282318231DA
:10049800A522823183310423823182318D22823137
:1004A8000800F601F701721C5A2A5B2A5F2A7408B1
:1004B800F6077508F73D0130F435F50D890B602A0C
:1004C8000130F336F20C890B652A72087304031D98
:1004D8006E2A6F2A572A7708F3007608F200080078
:1004E8003B009C019D0101309E009F01A0019201EB
:1004F800910161309400A8309300C33096005030C9
:1005080095009801073097009A019901C0309B0027
:10051800080020009901C130970080309600111022
:100528001708FB001608FA00210011140030F20029
:100538000030F30083310C238231413020009800D1
:1005480008003B00BC01BD010130BE00BF01C00175
:10055800B201B101B401B301C330B6005030B500E7
:10056800B8010130B700BA01B901C030BB000800BA
:100578003B00AC01AD010130AE00AF01B001A201FA
:10058800A101A401A301C330A6005030A500A80111
:100598000130A700AA01A901C030AB000800200063
:1005A80030080739F000F00A30087006F83970068C
:1005B800B0000130F0007008B1070130AE0700301C
:1005C800AF3D08002000181DEA2AEB2AF22A18106D
:1005D80071089700700896001814F62A7108970099
:1005E800700896000800200011107B08F1007A08B6
:1005F800F0008231E62282318231D3228231080032
:10060800F93020009B009A01911006309C000800E8
:0A0618007308F9007208F8000800EA
:020000040001F9
:08000000FF3FFF3FFF3FFF3F00
:04000E00E43FFF1EAE
:00000001FF
