:020000001928BD
:100008007E1480310B1F09280A2817282100111C8B
:100018000E280F2817282000111C13281428172829
:100028008131482180317E1009001A2881319C21B4
:100038008031AA0081319D218031AB0081319E2120
:100048008031AC0081319F218031AD00F601F7018C
:10005800F801F901A001A101A201A301A401A501D0
:10006800A601A701A801A9017E10200029292000C6
:100078002708031D57282608031D57282508031D90
:1000880057282408031D57282308031D572822082A
:10009800031D57282108031D57281E302002031C62
:1000A80056285728A42820308600003087000830BA
:1000B8002000B00000301E00B00B5F2876087704DF
:1000C800031D672868287A281430F8070030F93D9E
:1000D80003307902E83003197802031C7428752864
:1000E8008F280130F6000030F7008F287603770458
:1000F800031D7F2880288F281430F8020030F93B30
:100108000030790215300319780203188C288D28DD
:100118008F28F601F7017908F3007808F20080319A
:10012800D62080318430F2000330F3008031EC2097
:1001380080315830F2000230F300813102218031E1
:100148000800813139218031813196218031813116
:10015800A021803181319021803181318421803109
:1001680081318A2180318131762180318031BE20F0
:100178008031080020009901C1309700D0309600E6
:1001880011101708FB001608FA0021001114A730F7
:10019800F2000130F30081317E21803141302000AE
:1001A800980008007308F5007208F400F536F40C9E
:1001B800F536F40C74082C009B0072080339F4001F
:1001C8000530F435FF3E031DE52874359A00080014
:1001D8007308F5007208F400F536F40CF536F40CE3
:1001E80074082C00980072080339F4000530F435BF
:1001F800FF3E031DFB287435970008007308F500BF
:100208007208F400F536F40CF536F40C74082C007A
:10021800920072080339F4000530F435FF3E031DDF
:1002280011297435910008002000181D1C291D296A
:1002380024291810710897007008960018142829A6
:10024800710897007008960008008031A520813158
:100258008131A421813181316E2181318B170B17B6
:1002680080313B2081313429192822008C010B3040
:1002780021008C00163023008C0024008C01210002
:10028800951722009D010800200011107B08F1003D
:100298007A08F0008131182181318131552181316D
:1002A800080020002E082F0403195B295C29612906
:1002B8002F088A002E080A0081310800013020002A
:1002C800A0070030A13DA23DA33DA43DA53DA63D0C
:1002D800A73D08006230F2000130F30081317E2131
:1002E80081310800F93020009B009A0191100630F6
:1002F8009C00080073082000AF007208AE000800D8
:10030800C0302C009C009B019A010800C0302C00D2
:100318009900980197010800C0302C0093009201C1
:100328009101080078302100990022009601080008
:1003380084340334583402341630210097000800FE
:0803480020001C15080008004C
:020000040001F9
:04000E00E43FFF3F8D
:00000001FF
