:020000001928BD
:100008007E1480310B1F09280A2817282100111C8B
:100018000E280F2817282000111C13281428172829
:1000280082318E2280317E1009001A28FA01FB01E4
:1000380020308400003085000E308231BF228031AC
:100048007E102000622A053020002C02031C2D2877
:100058002E282929AC0103100C1C03147A0DC03872
:10006800FA0029290330FB006030F200EA30F3007F
:100078006030F400EA30F5006030F600EA30F7004E
:100088008231722280318131942180310030200008
:10009800A9000030A8000030A7000030A6004829B9
:1000A8000030A9000030A8000030A7000030A600EA
:1000B8007A0A031D6028612848290230FB000030B5
:1000C800A9000030A8000030A7000030A600482989
:1000D800C0307A06031D7128722848293628290855
:1000E800031D81282808031D812860302602EA3074
:1000F800273B031C802881289E28D030F200073037
:10010800F300D030F4000730F500D030F6000730A7
:10011800F700823172228031813194218031FB01D4
:10012800FB0A00302000A9000030A8000030A7001A
:100138000030A6007A0A031DA228A3284829003007
:10014800F5000030F4000030F3000530F200200024
:100158002908F9002808F8002708F7002608F600FB
:100168008131492180317208013E2000AA00260809
:100178000139AB002A08B400B5013408F20035088B
:10018800F3008231FB2280310430FB000030200074
:10019800A9000030A8000030A7000030A6004829B8
:1001A8000330F2000030F3008231DD228031720822
:1001B80073040319E028E128482920002B03031DB4
:1001C800E628E728FA28FF30F200FF30F300003075
:1001D800F400F5000030F600F70082317222803119
:1001E8008131942180310530FB00CA280030F200AB
:1001F800F300FF30F400FF30F5000030F600F700A0
:100208008231722280318131942180310630FB00A5
:10021800CA28AC3026060D300319270628042904FD
:10022800031D1729182948290230FB003828AC304B
:1002380026060D300319270628042904031D25293D
:10024800262948291829FB01CA287B08B400B501CA
:100258003508003A0319312927293408003A0319C7
:100268003628013A03195428033A03196C28013A2D
:1002780003197328073A0319D428013A03190D29D9
:10028800033A03191B292729080075087404730405
:1002980072040319502951298B292000B301B30A8C
:1002A80060290130F235F30DF40DF50D890B56294F
:1002B8000130B2003208B307F51F632964295529B4
:1002C80075087902031D722974087802031D7229C2
:1002D80073087702031D722972087602031C7529B8
:1002E80076297E297208F6027308F73B7408F83BF2
:1002F8007508F93B0130F536F40CF30CF20C890B58
:100308007F290130B302031D8A298B2964297908C2
:10031800F5007808F4007708F3007608F200080082
:100328008231F222813120002108F3002008F200F6
:100338008231D12281318231F52281318231EC2220
:10034800813120002308F3002208F2008231CB22F9
:1003580081318231EF2281318231E62281312000E0
:100368002508F3002408F2008231C5228131823148
:10037800E92281310800013022008C000B30210075
:100388008C00063023008C0024008C010C14210002
:10039800951325008C01373026008C003F3027004C
:1003A8008C00033022009D0008008131BF2181317B
:1003B8008231B82281318231E22281318131F221C8
:1003C800813182313A228131823123228131823155
:1003D800B022813182310B22813108003B009C011F
:1003E8009D0121309E009F01A00192019101613081
:1003F8009400A8309300C3309600503095009801BF
:10040800073097009A019901C0309B00080020002E
:100418009901C13097008030960011101708B1007B
:100428001608B00021001114FC30F2000230F3006D
:100438008231D722823141302000980008003B00E9
:10044800BC01BD012130BE00BF01C001B201B10134
:10045800B401B301C330B6005030B500B801013063
:10046800B700BA01B901C030BB0008003B00AC01BD
:10047800AD012130AE00AF01B001A201A101A4017C
:10048800A301C330A6005030A500A8010130A70081
:10049800AA01A901C030AB0008002000181D552A88
:1004A800562A5D2A181071089700700896001814CB
:1004B800612A710897007008960008008131D921D7
:1004C80082318231F82282318231A82282318B171F
:1004D8000B178031272082316D2A192873082000D4
:1004E800A1007208A0007508A3007408A20077088C
:1004F800A5007608A40008000130F000700820006C
:10050800AC070130A6070030A73D0030A83D0030F9
:10051800A93D0800200011103108F1003008F00052
:1005280082315122823182319B228231080020009F
:100538002E082F040319A12AA22AA72A2F088A0005
:100548002E080A00823108008030F2000230F300E1
:100558008231D72282310800F93020009B009A01AD
:10056800911006309C00080078302100990098010D
:10057800220096010800640080010131890BC02A1D
:10058800003473083B00B4007208B3000800730815
:100598003B00A4007208A300080073083B00940005
:1005A80072089300080073082000AF007208AE00BC
:1005B80008000130F2000030F30008001630210076
:1005C800970008003B00BB1308003B00BB1708005E
:1005D8003B00AB1308003B00AB1708003B009B1324
:1005E80008003B009B17080020001C1508000800A5
:0205F8000800F9
:020000040001F9
:08000000FF3FFF3FFF3FFF3F00
:04000E00E43FFF1EAE
:00000001FF
