:020000001928BD
:100008007E1480310B1F09280A2817282100111C8B
:100018000E280F2817282000111C13281428172829
:100028008131402180317E1009001A2881318421D4
:100038008031F400813185218031F50081318621BC
:100048008031F600813187218031F700F001F1011C
:10005800F201F301A001A101A201A301A401A501DC
:10006800A601A7017E102000302920002708031DC3
:1000780054282608031D54282508031D542824083D
:10008800031D54282308031D54282208031D54283F
:10009800E83020020330213B031C532854289128C0
:1000A800203086000030870008302000AA00003089
:1000B8001E00AA0B5C2870087104031D64286528BB
:1000C8007728D030F2070730F33DC3307302503041
:1000D80003197202031C712872288D280130F00060
:1000E8000030F1008D2870037104031D7C287D28E1
:1000F8008D28D030F2020730F33B07307302D1303D
:1001080003197202031889288A288D28F001F10141
:100118008D2822008C160C160C1508008031DD2065
:10012800803181317721803181318821803180315E
:10013800C420803181310A2180318031F52080311D
:1001480081316F2180318031AB208031080020005F
:100158009901C13097008030960011101708F900F6
:100168001608F800210011148F302000AA00013071
:10017800AB0081317E218031413020009800080099
:100188003B009C019D0121309E009F01A00192012E
:10019800910161309400A8309300C330960050302C
:1001A80095009801073097009A01990180309B00CB
:1001B800080022008C010B3021008C00163023002F
:1001C8008C0024008C012100951725008C01373004
:1001D80026008C003F3027008C00033022009D0051
:1001E80008003B00BC01BD01BE01BF01C001B20156
:1001F800B101B401B301B6011F30B500B8011F3019
:10020800B700BA01B9018030BB0008003B00AC015F
:10021800AD01AE01AF01B001A201A101A401A3018A
:10022800A6011F30A500A8011F30A700AA01A90137
:100238008030AB0008002000181D232924292B2911
:1002480018107B0897007A08960018142F297B0845
:1002580097007A0896000800803192208131813118
:100268008C2181318131662181318B170B178031C7
:10027800392081313B291928200011107908FB0009
:100288007808FA0081311F21813181314D21813176
:10029800080020002808290403195329542959293A
:1002A80029088A0028080A00813108000130200046
:1002B800A0070030A13DA23DA33DA43DA53DA63D1C
:1002C800A73D08005A302000AA000130AB00813158
:1002D8007E2181310800F93020009B009A0191109D
:1002E80006309C000800783021009900980122000F
:1002F8009601080020002B08A9002A08A800080079
:10030800843403345834023416302100970008002E
:0803180020001C15080008007C
:020000040001F9
:08000000FF3FFF3FFF3FFF3F00
:04000E00E43FFF3E8E
:00000001FF
